{
  "contractName": "Counter",
  "abi": [
    {
      "constant": false,
      "inputs": [],
      "name": "increment",
      "outputs": [],
      "payable": false,
      "stateMutability": "nonpayable",
      "type": "function"
    },
    {
      "constant": true,
      "inputs": [],
      "name": "getCount",
      "outputs": [
        {
          "internalType": "uint256",
          "name": "",
          "type": "uint256"
        }
      ],
      "payable": false,
      "stateMutability": "view",
      "type": "function"
    }
  ],
  "bytecode": "0x608060405260008055348015601357600080fd5b5060ab806100226000396000f3fe6080604052348015600f57600080fd5b506004361060325760003560e01c8063a87d942c146037578063d09de08a146053575b600080fd5b603d605b565b6040518082815260200191505060405180910390f35b60596064565b005b60008054905090565b6001600080828254019250508190555056fea265627a7a723158209ff8453bfcb5e1795c16c38855e22e141af1a9e9c51c90e1220b1551bbbd607264736f6c63430005100032",
  "source": "pragma solidity >=0.4.22 <0.9.0;\n\ncontract Counter {\n    uint256 count = 0;\n\n    function increment() public {\n        count += 1;\n    }\n\n    function getCount() public view returns (uint256) {\n        return count;\n    }\n}\n",
  "sourcePath": "/Users/ryanharaki/Desktop/eth-tutorial-starter/contracts/contracts/counter.sol",
  "compiler": {
    "name": "solc",
    "version": "0.5.16+commit.9c3226ce.Emscripten.clang"
  },
  "schemaVersion": "3.4.12",
  "updatedAt": "2023-02-18T23:28:05.025Z",
  "networkType": "ethereum",
  "devdoc": {
    "methods": {}
  },
  "userdoc": {
    "methods": {}
  }
}